:03000000020100FA
:02000B00218E44
:02000300217664
:02001300218545
:1001000078007900758901758CDC758A00D288D2F7
:10011000AFD2A9D2A8D28AD2AAD28C312331483107
:100120005F80F831283139223080012231A53080BA
:10013000FB09B96403790022223081012231A53004
:1001400081FBB90001221922E875F00A8485F0A02C
:10015000D29331A5C293F5A0D29231A5C29222E9E1
:1001600075F00A8485F0A0D29131A5C291F5A0D294
:100170009031A5C29022C28C78007900758CDC7514
:100180008A00D28C32208C03D28C32C28C32C28C48
:10019000758CDC758A00D28C08B86408780009B9BF
:0A01A00064027900327DFADDFE22D0
:00000001FF
